{
  "contractName": "Givven",
  "abi": [
    {
      "inputs": [],
      "payable": false,
      "stateMutability": "nonpayable",
      "type": "constructor"
    },
    {
      "constant": false,
      "inputs": [
        {
          "internalType": "string",
          "name": "_user",
          "type": "string"
        }
      ],
      "name": "addUser",
      "outputs": [],
      "payable": false,
      "stateMutability": "nonpayable",
      "type": "function"
    },
    {
      "constant": true,
      "inputs": [
        {
          "internalType": "string",
          "name": "_user",
          "type": "string"
        }
      ],
      "name": "getBalance",
      "outputs": [
        {
          "internalType": "uint256",
          "name": "",
          "type": "uint256"
        }
      ],
      "payable": false,
      "stateMutability": "view",
      "type": "function"
    },
    {
      "constant": false,
      "inputs": [
        {
          "internalType": "string",
          "name": "_user",
          "type": "string"
        },
        {
          "internalType": "uint256",
          "name": "_point",
          "type": "uint256"
        }
      ],
      "name": "chargeUser",
      "outputs": [],
      "payable": false,
      "stateMutability": "nonpayable",
      "type": "function"
    },
    {
      "constant": false,
      "inputs": [
        {
          "internalType": "string",
          "name": "_user",
          "type": "string"
        },
        {
          "internalType": "uint256",
          "name": "_point",
          "type": "uint256"
        }
      ],
      "name": "dischargeUser",
      "outputs": [],
      "payable": false,
      "stateMutability": "nonpayable",
      "type": "function"
    },
    {
      "constant": false,
      "inputs": [
        {
          "internalType": "string",
          "name": "_campaignId",
          "type": "string"
        },
        {
          "internalType": "string",
          "name": "_socialorg",
          "type": "string"
        }
      ],
      "name": "createCampaign",
      "outputs": [],
      "payable": false,
      "stateMutability": "nonpayable",
      "type": "function"
    },
    {
      "constant": false,
      "inputs": [
        {
          "internalType": "string",
          "name": "_user",
          "type": "string"
        },
        {
          "internalType": "string",
          "name": "_campaignId",
          "type": "string"
        },
        {
          "internalType": "uint256",
          "name": "_value",
          "type": "uint256"
        }
      ],
      "name": "donate",
      "outputs": [],
      "payable": false,
      "stateMutability": "nonpayable",
      "type": "function"
    },
    {
      "constant": true,
      "inputs": [
        {
          "internalType": "string",
          "name": "_campaignId",
          "type": "string"
        }
      ],
      "name": "getCampaignBalance",
      "outputs": [
        {
          "internalType": "uint256",
          "name": "",
          "type": "uint256"
        }
      ],
      "payable": false,
      "stateMutability": "view",
      "type": "function"
    },
    {
      "constant": true,
      "inputs": [
        {
          "internalType": "string",
          "name": "_campaignId",
          "type": "string"
        }
      ],
      "name": "getCampaignOwner",
      "outputs": [
        {
          "internalType": "string",
          "name": "",
          "type": "string"
        }
      ],
      "payable": false,
      "stateMutability": "view",
      "type": "function"
    },
    {
      "constant": true,
      "inputs": [
        {
          "internalType": "string",
          "name": "_campaignId",
          "type": "string"
        },
        {
          "internalType": "string",
          "name": "_user",
          "type": "string"
        }
      ],
      "name": "getDonateValueByUser",
      "outputs": [
        {
          "internalType": "uint256",
          "name": "",
          "type": "uint256"
        }
      ],
      "payable": false,
      "stateMutability": "view",
      "type": "function"
    },
    {
      "constant": false,
      "inputs": [
        {
          "internalType": "string",
          "name": "_store",
          "type": "string"
        },
        {
          "internalType": "string",
          "name": "_user",
          "type": "string"
        }
      ],
      "name": "createStore",
      "outputs": [],
      "payable": false,
      "stateMutability": "nonpayable",
      "type": "function"
    }
  ],
  "bytecode": "0x608060405234801561001057600080fd5b50336000806101000a81548173ffffffffffffffffffffffffffffffffffffffff021916908373ffffffffffffffffffffffffffffffffffffffff1602179055506116ca806100606000396000f3fe608060405234801561001057600080fd5b506004361061009e5760003560e01c80634a3b1152116100665780634a3b1152146105a057806358cb6ce51461066f5780637f3582f1146107d5578063e4738eea1461089a578063fce3f6ac146109ce5761009e565b806318b8275a146100a35780631b20335d1461015e578063387da4f2146102b05780633a51d2461461040c57806346d9ca07146104db575b600080fd5b61015c600480360360208110156100b957600080fd5b81019080803590602001906401000000008111156100d657600080fd5b8201836020820111156100e857600080fd5b8035906020019184600183028401116401000000008311171561010a57600080fd5b91908080601f016020809104026020016040519081016040528093929190818152602001838380828437600081840152601f19601f820116905080830192505050505050509192919290505050610b20565b005b6102ae6004803603604081101561017457600080fd5b810190808035906020019064010000000081111561019157600080fd5b8201836020820111156101a357600080fd5b803590602001918460018302840111640100000000831117156101c557600080fd5b91908080601f016020809104026020016040519081016040528093929190818152602001838380828437600081840152601f19601f8201169050808301925050505050505091929192908035906020019064010000000081111561022857600080fd5b82018360208201111561023a57600080fd5b8035906020019184600183028401116401000000008311171561025c57600080fd5b91908080601f016020809104026020016040519081016040528093929190818152602001838380828437600081840152601f19601f820116905080830192505050505050509192919290505050610b92565b005b61040a600480360360608110156102c657600080fd5b81019080803590602001906401000000008111156102e357600080fd5b8201836020820111156102f557600080fd5b8035906020019184600183028401116401000000008311171561031757600080fd5b91908080601f016020809104026020016040519081016040528093929190818152602001838380828437600081840152601f19601f8201169050808301925050505050505091929192908035906020019064010000000081111561037a57600080fd5b82018360208201111561038c57600080fd5b803590602001918460018302840111640100000000831117156103ae57600080fd5b91908080601f016020809104026020016040519081016040528093929190818152602001838380828437600081840152601f19601f82011690508083019250505050505050919291929080359060200190929190505050610c43565b005b6104c56004803603602081101561042257600080fd5b810190808035906020019064010000000081111561043f57600080fd5b82018360208201111561045157600080fd5b8035906020019184600183028401116401000000008311171561047357600080fd5b91908080601f016020809104026020016040519081016040528093929190818152602001838380828437600081840152601f19601f820116905080830192505050505050509192919290505050610e65565b6040518082815260200191505060405180910390f35b61059e600480360360408110156104f157600080fd5b810190808035906020019064010000000081111561050e57600080fd5b82018360208201111561052057600080fd5b8035906020019184600183028401116401000000008311171561054257600080fd5b91908080601f016020809104026020016040519081016040528093929190818152602001838380828437600081840152601f19601f82011690508083019250505050505050919291929080359060200190929190505050610ed8565b005b610659600480360360208110156105b657600080fd5b81019080803590602001906401000000008111156105d357600080fd5b8201836020820111156105e557600080fd5b8035906020019184600183028401116401000000008311171561060757600080fd5b91908080601f016020809104026020016040519081016040528093929190818152602001838380828437600081840152601f19601f820116905080830192505050505050509192919290505050611021565b6040518082815260200191505060405180910390f35b6107bf6004803603604081101561068557600080fd5b81019080803590602001906401000000008111156106a257600080fd5b8201836020820111156106b457600080fd5b803590602001918460018302840111640100000000831117156106d657600080fd5b91908080601f016020809104026020016040519081016040528093929190818152602001838380828437600081840152601f19601f8201169050808301925050505050505091929192908035906020019064010000000081111561073957600080fd5b82018360208201111561074b57600080fd5b8035906020019184600183028401116401000000008311171561076d57600080fd5b91908080601f016020809104026020016040519081016040528093929190818152602001838380828437600081840152601f19601f820116905080830192505050505050509192919290505050611097565b6040518082815260200191505060405180910390f35b610898600480360360408110156107eb57600080fd5b810190808035906020019064010000000081111561080857600080fd5b82018360208201111561081a57600080fd5b8035906020019184600183028401116401000000008311171561083c57600080fd5b91908080601f016020809104026020016040519081016040528093929190818152602001838380828437600081840152601f19601f82011690508083019250505050505050919291929080359060200190929190505050611175565b005b610953600480360360208110156108b057600080fd5b81019080803590602001906401000000008111156108cd57600080fd5b8201836020820111156108df57600080fd5b8035906020019184600183028401116401000000008311171561090157600080fd5b91908080601f016020809104026020016040519081016040528093929190818152602001838380828437600081840152601f19601f820116905080830192505050505050509192919290505050611249565b6040518080602001828103825283818151815260200191508051906020019080838360005b83811015610993578082015181840152602081019050610978565b50505050905090810190601f1680156109c05780820380516001836020036101000a031916815260200191505b509250505060405180910390f35b610b1e600480360360408110156109e457600080fd5b8101908080359060200190640100000000811115610a0157600080fd5b820183602082011115610a1357600080fd5b80359060200191846001830284011164010000000083111715610a3557600080fd5b91908080601f016020809104026020016040519081016040528093929190818152602001838380828437600081840152601f19601f82011690508083019250505050505050919291929080359060200190640100000000811115610a9857600080fd5b820183602082011115610aaa57600080fd5b80359060200191846001830284011164010000000083111715610acc57600080fd5b91908080601f016020809104026020016040519081016040528093929190818152602001838380828437600081840152601f19601f820116905080830192505050505050509192919290505050611357565b005b60006001826040518082805190602001908083835b60208310610b585780518252602082019150602081019050602083039250610b35565b6001836020036101000a03801982511681845116808217855250505050505090500191505090815260200160405180910390208190555050565b610b9b81610b20565b610ba3611468565b6040518060200160405280838152509050806003846040518082805190602001908083835b60208310610beb5780518252602082019150602081019050602083039250610bc8565b6001836020036101000a03801982511681845116808217855250505050505090500191505090815260200160405180910390206000820151816000019080519060200190610c3a92919061147b565b50905050505050565b806001846040518082805190602001908083835b60208310610c7a5780518252602082019150602081019050602083039250610c57565b6001836020036101000a03801982511681845116808217855250505050505090500191505090815260200160405180910390205411610cb857600080fd5b806001846040518082805190602001908083835b60208310610cef5780518252602082019150602081019050602083039250610ccc565b6001836020036101000a03801982511681845116808217855250505050505090500191505090815260200160405180910390206000828254039250508190555060006002836040518082805190602001908083835b60208310610d675780518252602082019150602081019050602083039250610d44565b6001836020036101000a038019825116818451168082178552505050505050905001915050908152602001604051809103902090508181600101600082825401925050819055508181600301856040518082805190602001908083835b60208310610de75780518252602082019150602081019050602083039250610dc4565b6001836020036101000a03801982511681845116808217855250505050505090500191505090815260200160405180910390208190555080600201849080600181540180825580915050906001820390600052602060002001600090919290919091509080519060200190610e5d9291906114fb565b505050505050565b60006001826040518082805190602001908083835b60208310610e9d5780518252602082019150602081019050602083039250610e7a565b6001836020036101000a0380198251168184511680821785525050505050509050019150509081526020016040518091039020549050919050565b6000809054906101000a900473ffffffffffffffffffffffffffffffffffffffff1673ffffffffffffffffffffffffffffffffffffffff163373ffffffffffffffffffffffffffffffffffffffff1614610f3157600080fd5b806001836040518082805190602001908083835b60208310610f685780518252602082019150602081019050602083039250610f45565b6001836020036101000a03801982511681845116808217855250505050505090500191505090815260200160405180910390205411610fa657600080fd5b806001836040518082805190602001908083835b60208310610fdd5780518252602082019150602081019050602083039250610fba565b6001836020036101000a0380198251168184511680821785525050505050509050019150509081526020016040518091039020600082825403925050819055505050565b60006002826040518082805190602001908083835b602083106110595780518252602082019150602081019050602083039250611036565b6001836020036101000a0380198251168184511680821785525050505050509050019150509081526020016040518091039020600101549050919050565b60006002836040518082805190602001908083835b602083106110cf57805182526020820191506020810190506020830392506110ac565b6001836020036101000a0380198251168184511680821785525050505050509050019150509081526020016040518091039020600301826040518082805190602001908083835b602083106111395780518252602082019150602081019050602083039250611116565b6001836020036101000a038019825116818451168082178552505050505050905001915050908152602001604051809103902054905092915050565b6000809054906101000a900473ffffffffffffffffffffffffffffffffffffffff1673ffffffffffffffffffffffffffffffffffffffff163373ffffffffffffffffffffffffffffffffffffffff16146111ce57600080fd5b806001836040518082805190602001908083835b6020831061120557805182526020820191506020810190506020830392506111e2565b6001836020036101000a0380198251168184511680821785525050505050509050019150509081526020016040518091039020600082825401925050819055505050565b60606002826040518082805190602001908083835b60208310611281578051825260208201915060208101905060208303925061125e565b6001836020036101000a03801982511681845116808217855250505050505090500191505090815260200160405180910390206000018054600181600116156101000203166002900480601f01602080910402602001604051908101604052809291908181526020018280546001816001161561010002031660029004801561134b5780601f106113205761010080835404028352916020019161134b565b820191906000526020600020905b81548152906001019060200180831161132e57829003601f168201915b50505050509050919050565b61135f61157b565b60405180606001604052808381526020016000815260200160006040519080825280602002602001820160405280156113ac57816020015b60608152602001906001900390816113975790505b508152509050806002846040518082805190602001908083835b602083106113e957805182526020820191506020810190506020830392506113c6565b6001836020036101000a0380198251168184511680821785525050505050509050019150509081526020016040518091039020600082015181600001908051906020019061143892919061147b565b5060208201518160010155604082015181600201908051906020019061145f92919061159c565b50905050505050565b6040518060200160405280606081525090565b828054600181600116156101000203166002900490600052602060002090601f016020900481019282601f106114bc57805160ff19168380011785556114ea565b828001600101855582156114ea579182015b828111156114e95782518255916020019190600101906114ce565b5b5090506114f791906115fc565b5090565b828054600181600116156101000203166002900490600052602060002090601f016020900481019282601f1061153c57805160ff191683800117855561156a565b8280016001018555821561156a579182015b8281111561156957825182559160200191906001019061154e565b5b50905061157791906115fc565b5090565b60405180606001604052806060815260200160008152602001606081525090565b8280548282559060005260206000209081019282156115eb579160200282015b828111156115ea5782518290805190602001906115da92919061147b565b50916020019190600101906115bc565b5b5090506115f89190611621565b5090565b61161e91905b8082111561161a576000816000905550600101611602565b5090565b90565b61164a91905b80821115611646576000818161163d919061164d565b50600101611627565b5090565b90565b50805460018160011615610100020316600290046000825580601f106116735750611692565b601f01602090049060005260206000209081019061169191906115fc565b5b5056fea265627a7a72315820ac0776b8833020ccde543b3d51e2e3b7bb10fdd92536032c55aced5de1a07aa464736f6c63430005100032",
  "source": "pragma solidity > 0.4.17;\n\ncontract Givven{\n\n    address admin;\n\n    mapping(string => uint) accounts;\n    mapping(string => Campaign) campaigns;\n    mapping(string => Store) stores;\n\n    struct Campaign{\n        string socialOrg;\n        uint currentDonate;\n        string[] donator;\n        mapping(string => uint) donatevalue;\n    }\n    struct Store{\n        string owner;\n    }\n\n    //contructor\n    constructor() public {\n        admin = msg.sender;\n    }\n    //modifier\n    modifier onlyGivven{\n        require(msg.sender == admin);\n        _;\n    }\n\n    //-----------User Method-------------\n    function addUser(string memory _user) public{\n        accounts[_user] = 0;\n    }\n    function getBalance(string memory _user) public view returns (uint){\n        return accounts[_user];\n    }\n    function chargeUser(string memory _user, uint _point) public onlyGivven {\n        accounts[_user] += _point;\n    }\n    function dischargeUser(string memory _user, uint _point) public onlyGivven{\n        require(accounts[_user] > _point);\n        accounts[_user] -= _point;\n    }\n\n    //----------Campaign Method--------------\n    function createCampaign(string memory _campaignId, string memory _socialorg) public {\n        Campaign  memory newcampaign = Campaign(_socialorg,0,new string[](0));\n        campaigns[_campaignId] = newcampaign;\n    }\n    function donate(string memory _user, string memory _campaignId, uint _value) public {\n        require(accounts[_user] > _value);\n        accounts[_user] -= _value;\n        Campaign storage target = campaigns[_campaignId];\n        target.currentDonate += _value;\n        target.donatevalue[_user] = _value;\n        target.donator.push(_user);\n    }\n    function getCampaignBalance(string memory _campaignId) public view returns (uint){\n        return campaigns[_campaignId].currentDonate;\n    }\n    function getCampaignOwner(string memory _campaignId) public view returns (string memory){\n        return campaigns[_campaignId].socialOrg;\n    }\n    function getDonateValueByUser(string memory _campaignId,string memory _user) public view returns (uint ){\n        return campaigns[_campaignId].donatevalue[_user];\n    }\n\n    //Store method\n    function createStore(string memory _store,string memory _user) public {\n        addUser(_user);\n        Store memory newstore = Store(_user);\n        stores[_store] = newstore;\n    }\n}",
  "sourcePath": "/home/peer1/Givven/dapp/contracts/Givven.sol",
  "compiler": {
    "name": "solc",
    "version": "0.5.16+commit.9c3226ce.Emscripten.clang"
  },
  "schemaVersion": "3.2.0",
  "updatedAt": "2020-06-01T07:04:10.869Z",
  "networkType": "ethereum",
  "devdoc": {
    "methods": {}
  },
  "userdoc": {
    "methods": {}
  }
}