{
  "contractName": "Givven",
  "abi": [
    {
      "inputs": [],
      "payable": false,
      "stateMutability": "nonpayable",
      "type": "constructor"
    },
    {
      "constant": false,
      "inputs": [
        {
          "internalType": "string",
          "name": "_user",
          "type": "string"
        }
      ],
      "name": "addUser",
      "outputs": [],
      "payable": false,
      "stateMutability": "nonpayable",
      "type": "function"
    },
    {
      "constant": true,
      "inputs": [
        {
          "internalType": "string",
          "name": "_user",
          "type": "string"
        }
      ],
      "name": "getBalance",
      "outputs": [
        {
          "internalType": "uint256",
          "name": "",
          "type": "uint256"
        }
      ],
      "payable": false,
      "stateMutability": "view",
      "type": "function"
    },
    {
      "constant": false,
      "inputs": [
        {
          "internalType": "string",
          "name": "_user",
          "type": "string"
        },
        {
          "internalType": "uint256",
          "name": "_point",
          "type": "uint256"
        }
      ],
      "name": "chargeUser",
      "outputs": [],
      "payable": false,
      "stateMutability": "nonpayable",
      "type": "function"
    },
    {
      "constant": false,
      "inputs": [
        {
          "internalType": "string",
          "name": "_user",
          "type": "string"
        },
        {
          "internalType": "uint256",
          "name": "_point",
          "type": "uint256"
        }
      ],
      "name": "dischargeUser",
      "outputs": [],
      "payable": false,
      "stateMutability": "nonpayable",
      "type": "function"
    },
    {
      "constant": false,
      "inputs": [
        {
          "internalType": "string",
          "name": "_campaignId",
          "type": "string"
        },
        {
          "internalType": "string",
          "name": "_socialorg",
          "type": "string"
        }
      ],
      "name": "createCampaign",
      "outputs": [],
      "payable": false,
      "stateMutability": "nonpayable",
      "type": "function"
    },
    {
      "constant": false,
      "inputs": [
        {
          "internalType": "string",
          "name": "_user",
          "type": "string"
        },
        {
          "internalType": "string",
          "name": "_campaignId",
          "type": "string"
        },
        {
          "internalType": "uint256",
          "name": "_value",
          "type": "uint256"
        }
      ],
      "name": "donate",
      "outputs": [],
      "payable": false,
      "stateMutability": "nonpayable",
      "type": "function"
    },
    {
      "constant": true,
      "inputs": [
        {
          "internalType": "string",
          "name": "_campaignId",
          "type": "string"
        }
      ],
      "name": "getCampaignBalance",
      "outputs": [
        {
          "internalType": "uint256",
          "name": "",
          "type": "uint256"
        }
      ],
      "payable": false,
      "stateMutability": "view",
      "type": "function"
    },
    {
      "constant": true,
      "inputs": [
        {
          "internalType": "string",
          "name": "_campaignId",
          "type": "string"
        }
      ],
      "name": "getCampaignOwner",
      "outputs": [
        {
          "internalType": "string",
          "name": "",
          "type": "string"
        }
      ],
      "payable": false,
      "stateMutability": "view",
      "type": "function"
    },
    {
      "constant": false,
      "inputs": [
        {
          "internalType": "string",
          "name": "_store",
          "type": "string"
        },
        {
          "internalType": "string",
          "name": "_user",
          "type": "string"
        }
      ],
      "name": "createStore",
      "outputs": [],
      "payable": false,
      "stateMutability": "nonpayable",
      "type": "function"
    }
  ],
  "bytecode": "0x608060405234801561001057600080fd5b50336000806101000a81548173ffffffffffffffffffffffffffffffffffffffff021916908373ffffffffffffffffffffffffffffffffffffffff16021790555061147b806100606000396000f3fe608060405234801561001057600080fd5b50600436106100935760003560e01c806346d9ca071161006657806346d9ca07146104d05780634a3b1152146105955780637f3582f114610664578063e4738eea14610729578063fce3f6ac1461085d57610093565b806318b8275a146100985780631b20335d14610153578063387da4f2146102a55780633a51d24614610401575b600080fd5b610151600480360360208110156100ae57600080fd5b81019080803590602001906401000000008111156100cb57600080fd5b8201836020820111156100dd57600080fd5b803590602001918460018302840111640100000000831117156100ff57600080fd5b91908080601f016020809104026020016040519081016040528093929190818152602001838380828437600081840152601f19601f8201169050808301925050505050505091929192905050506109af565b005b6102a36004803603604081101561016957600080fd5b810190808035906020019064010000000081111561018657600080fd5b82018360208201111561019857600080fd5b803590602001918460018302840111640100000000831117156101ba57600080fd5b91908080601f016020809104026020016040519081016040528093929190818152602001838380828437600081840152601f19601f8201169050808301925050505050505091929192908035906020019064010000000081111561021d57600080fd5b82018360208201111561022f57600080fd5b8035906020019184600183028401116401000000008311171561025157600080fd5b91908080601f016020809104026020016040519081016040528093929190818152602001838380828437600081840152601f19601f820116905080830192505050505050509192919290505050610a21565b005b6103ff600480360360608110156102bb57600080fd5b81019080803590602001906401000000008111156102d857600080fd5b8201836020820111156102ea57600080fd5b8035906020019184600183028401116401000000008311171561030c57600080fd5b91908080601f016020809104026020016040519081016040528093929190818152602001838380828437600081840152601f19601f8201169050808301925050505050505091929192908035906020019064010000000081111561036f57600080fd5b82018360208201111561038157600080fd5b803590602001918460018302840111640100000000831117156103a357600080fd5b91908080601f016020809104026020016040519081016040528093929190818152602001838380828437600081840152601f19601f82011690508083019250505050505050919291929080359060200190929190505050610ad2565b005b6104ba6004803603602081101561041757600080fd5b810190808035906020019064010000000081111561043457600080fd5b82018360208201111561044657600080fd5b8035906020019184600183028401116401000000008311171561046857600080fd5b91908080601f016020809104026020016040519081016040528093929190818152602001838380828437600081840152601f19601f820116905080830192505050505050509192919290505050610cf4565b6040518082815260200191505060405180910390f35b610593600480360360408110156104e657600080fd5b810190808035906020019064010000000081111561050357600080fd5b82018360208201111561051557600080fd5b8035906020019184600183028401116401000000008311171561053757600080fd5b91908080601f016020809104026020016040519081016040528093929190818152602001838380828437600081840152601f19601f82011690508083019250505050505050919291929080359060200190929190505050610d67565b005b61064e600480360360208110156105ab57600080fd5b81019080803590602001906401000000008111156105c857600080fd5b8201836020820111156105da57600080fd5b803590602001918460018302840111640100000000831117156105fc57600080fd5b91908080601f016020809104026020016040519081016040528093929190818152602001838380828437600081840152601f19601f820116905080830192505050505050509192919290505050610eb0565b6040518082815260200191505060405180910390f35b6107276004803603604081101561067a57600080fd5b810190808035906020019064010000000081111561069757600080fd5b8201836020820111156106a957600080fd5b803590602001918460018302840111640100000000831117156106cb57600080fd5b91908080601f016020809104026020016040519081016040528093929190818152602001838380828437600081840152601f19601f82011690508083019250505050505050919291929080359060200190929190505050610f26565b005b6107e26004803603602081101561073f57600080fd5b810190808035906020019064010000000081111561075c57600080fd5b82018360208201111561076e57600080fd5b8035906020019184600183028401116401000000008311171561079057600080fd5b91908080601f016020809104026020016040519081016040528093929190818152602001838380828437600081840152601f19601f820116905080830192505050505050509192919290505050610ffa565b6040518080602001828103825283818151815260200191508051906020019080838360005b83811015610822578082015181840152602081019050610807565b50505050905090810190601f16801561084f5780820380516001836020036101000a031916815260200191505b509250505060405180910390f35b6109ad6004803603604081101561087357600080fd5b810190808035906020019064010000000081111561089057600080fd5b8201836020820111156108a257600080fd5b803590602001918460018302840111640100000000831117156108c457600080fd5b91908080601f016020809104026020016040519081016040528093929190818152602001838380828437600081840152601f19601f8201169050808301925050505050505091929192908035906020019064010000000081111561092757600080fd5b82018360208201111561093957600080fd5b8035906020019184600183028401116401000000008311171561095b57600080fd5b91908080601f016020809104026020016040519081016040528093929190818152602001838380828437600081840152601f19601f820116905080830192505050505050509192919290505050611108565b005b60006001826040518082805190602001908083835b602083106109e757805182526020820191506020810190506020830392506109c4565b6001836020036101000a03801982511681845116808217855250505050505090500191505090815260200160405180910390208190555050565b610a2a816109af565b610a32611219565b6040518060200160405280838152509050806003846040518082805190602001908083835b60208310610a7a5780518252602082019150602081019050602083039250610a57565b6001836020036101000a03801982511681845116808217855250505050505090500191505090815260200160405180910390206000820151816000019080519060200190610ac992919061122c565b50905050505050565b806001846040518082805190602001908083835b60208310610b095780518252602082019150602081019050602083039250610ae6565b6001836020036101000a03801982511681845116808217855250505050505090500191505090815260200160405180910390205411610b4757600080fd5b806001846040518082805190602001908083835b60208310610b7e5780518252602082019150602081019050602083039250610b5b565b6001836020036101000a03801982511681845116808217855250505050505090500191505090815260200160405180910390206000828254039250508190555060006002836040518082805190602001908083835b60208310610bf65780518252602082019150602081019050602083039250610bd3565b6001836020036101000a038019825116818451168082178552505050505050905001915050908152602001604051809103902090508181600101600082825401925050819055508181600301856040518082805190602001908083835b60208310610c765780518252602082019150602081019050602083039250610c53565b6001836020036101000a03801982511681845116808217855250505050505090500191505090815260200160405180910390208190555080600201849080600181540180825580915050906001820390600052602060002001600090919290919091509080519060200190610cec9291906112ac565b505050505050565b60006001826040518082805190602001908083835b60208310610d2c5780518252602082019150602081019050602083039250610d09565b6001836020036101000a0380198251168184511680821785525050505050509050019150509081526020016040518091039020549050919050565b6000809054906101000a900473ffffffffffffffffffffffffffffffffffffffff1673ffffffffffffffffffffffffffffffffffffffff163373ffffffffffffffffffffffffffffffffffffffff1614610dc057600080fd5b806001836040518082805190602001908083835b60208310610df75780518252602082019150602081019050602083039250610dd4565b6001836020036101000a03801982511681845116808217855250505050505090500191505090815260200160405180910390205411610e3557600080fd5b806001836040518082805190602001908083835b60208310610e6c5780518252602082019150602081019050602083039250610e49565b6001836020036101000a0380198251168184511680821785525050505050509050019150509081526020016040518091039020600082825403925050819055505050565b60006002826040518082805190602001908083835b60208310610ee85780518252602082019150602081019050602083039250610ec5565b6001836020036101000a0380198251168184511680821785525050505050509050019150509081526020016040518091039020600101549050919050565b6000809054906101000a900473ffffffffffffffffffffffffffffffffffffffff1673ffffffffffffffffffffffffffffffffffffffff163373ffffffffffffffffffffffffffffffffffffffff1614610f7f57600080fd5b806001836040518082805190602001908083835b60208310610fb65780518252602082019150602081019050602083039250610f93565b6001836020036101000a0380198251168184511680821785525050505050509050019150509081526020016040518091039020600082825401925050819055505050565b60606002826040518082805190602001908083835b60208310611032578051825260208201915060208101905060208303925061100f565b6001836020036101000a03801982511681845116808217855250505050505090500191505090815260200160405180910390206000018054600181600116156101000203166002900480601f0160208091040260200160405190810160405280929190818152602001828054600181600116156101000203166002900480156110fc5780601f106110d1576101008083540402835291602001916110fc565b820191906000526020600020905b8154815290600101906020018083116110df57829003601f168201915b50505050509050919050565b61111061132c565b604051806060016040528083815260200160008152602001600060405190808252806020026020018201604052801561115d57816020015b60608152602001906001900390816111485790505b508152509050806002846040518082805190602001908083835b6020831061119a5780518252602082019150602081019050602083039250611177565b6001836020036101000a038019825116818451168082178552505050505050905001915050908152602001604051809103902060008201518160000190805190602001906111e992919061122c565b5060208201518160010155604082015181600201908051906020019061121092919061134d565b50905050505050565b6040518060200160405280606081525090565b828054600181600116156101000203166002900490600052602060002090601f016020900481019282601f1061126d57805160ff191683800117855561129b565b8280016001018555821561129b579182015b8281111561129a57825182559160200191906001019061127f565b5b5090506112a891906113ad565b5090565b828054600181600116156101000203166002900490600052602060002090601f016020900481019282601f106112ed57805160ff191683800117855561131b565b8280016001018555821561131b579182015b8281111561131a5782518255916020019190600101906112ff565b5b50905061132891906113ad565b5090565b60405180606001604052806060815260200160008152602001606081525090565b82805482825590600052602060002090810192821561139c579160200282015b8281111561139b57825182908051906020019061138b92919061122c565b509160200191906001019061136d565b5b5090506113a991906113d2565b5090565b6113cf91905b808211156113cb5760008160009055506001016113b3565b5090565b90565b6113fb91905b808211156113f757600081816113ee91906113fe565b506001016113d8565b5090565b90565b50805460018160011615610100020316600290046000825580601f106114245750611443565b601f01602090049060005260206000209081019061144291906113ad565b5b5056fea265627a7a723158206a961ab0cf7bd2b331b2f4579bf0b3db61d92f8a882e4b289094c4321ec994cb64736f6c63430005100032",
  "source": "pragma solidity > 0.4.17;\n\ncontract Givven{\n\n    address admin;\n\n    mapping(string => uint) accounts;\n    mapping(string => Campaign) campaigns;\n    mapping(string => Store) stores;\n\n    struct Campaign{\n        string socialOrg;\n        uint currentDonate;\n        string[] donator;\n        mapping(string => uint) donatevalue;\n    }\n    struct Store{\n        string owner;\n    }\n\n    //contructor\n    constructor() public {\n        admin = msg.sender;\n    }\n    //modifier\n    modifier onlyGivven{\n        require(msg.sender == admin);\n        _;\n    }\n\n    //User Method\n    function addUser(string memory _user) public{\n        accounts[_user] = 0;\n    }\n    function getBalance(string memory _user) public view returns (uint){\n        return accounts[_user];\n    }\n    function chargeUser(string memory _user, uint _point) public onlyGivven {\n        accounts[_user] += _point;\n    }\n    function dischargeUser(string memory _user, uint _point) public onlyGivven{\n        require(accounts[_user] > _point);\n        accounts[_user] -= _point;\n    }\n\n    //Campaign Method\n    function createCampaign(string memory _campaignId, string memory _socialorg) public {\n        Campaign  memory newcampaign = Campaign(_socialorg,0,new string[](0));\n        campaigns[_campaignId] = newcampaign;\n    }\n    function donate(string memory _user, string memory _campaignId, uint _value) public {\n        require(accounts[_user] > _value);\n        accounts[_user] -= _value;\n        Campaign storage target = campaigns[_campaignId];\n        target.currentDonate += _value;\n        target.donatevalue[_user] = _value;\n        target.donator.push(_user);\n    }\n    function getCampaignBalance(string memory _campaignId) public view returns (uint){\n        return campaigns[_campaignId].currentDonate;\n    }\n    function getCampaignOwner(string memory _campaignId) public view returns (string memory){\n        return campaigns[_campaignId].socialOrg;\n    }\n\n    //Store method\n    function createStore(string memory _store,string memory _user) public {\n        addUser(_user);\n        Store memory newstore = Store(_user);\n        stores[_store] = newstore;\n    }\n}",
  "sourcePath": "/home/ether/Givven/dapp/contracts/Givven.sol",
  "compiler": {
    "name": "solc",
    "version": "0.5.16+commit.9c3226ce.Emscripten.clang"
  },
  "schemaVersion": "3.2.0",
  "updatedAt": "2020-05-31T17:37:53.002Z",
  "networkType": "ethereum",
  "devdoc": {
    "methods": {}
  },
  "userdoc": {
    "methods": {}
  }
}