{
  "contractName": "Givven",
  "abi": [
    {
      "inputs": [],
      "payable": false,
      "stateMutability": "nonpayable",
      "type": "constructor"
    },
    {
      "constant": false,
      "inputs": [],
      "name": "serviceEnd",
      "outputs": [],
      "payable": false,
      "stateMutability": "nonpayable",
      "type": "function"
    },
    {
      "constant": false,
      "inputs": [
        {
          "internalType": "string",
          "name": "_userEmail",
          "type": "string"
        }
      ],
      "name": "addUser",
      "outputs": [],
      "payable": false,
      "stateMutability": "nonpayable",
      "type": "function"
    },
    {
      "constant": true,
      "inputs": [
        {
          "internalType": "string",
          "name": "_userEmail",
          "type": "string"
        }
      ],
      "name": "getBalance",
      "outputs": [
        {
          "internalType": "uint256",
          "name": "",
          "type": "uint256"
        }
      ],
      "payable": false,
      "stateMutability": "view",
      "type": "function"
    },
    {
      "constant": false,
      "inputs": [
        {
          "internalType": "string",
          "name": "_userEmail",
          "type": "string"
        },
        {
          "internalType": "uint256",
          "name": "_point",
          "type": "uint256"
        }
      ],
      "name": "chargeUser",
      "outputs": [],
      "payable": false,
      "stateMutability": "nonpayable",
      "type": "function"
    },
    {
      "constant": false,
      "inputs": [
        {
          "internalType": "string",
          "name": "_userEmail",
          "type": "string"
        },
        {
          "internalType": "uint256",
          "name": "_point",
          "type": "uint256"
        }
      ],
      "name": "dischargeUser",
      "outputs": [],
      "payable": false,
      "stateMutability": "nonpayable",
      "type": "function"
    },
    {
      "constant": false,
      "inputs": [
        {
          "internalType": "string",
          "name": "_campaignId",
          "type": "string"
        },
        {
          "internalType": "string",
          "name": "_socialOrg",
          "type": "string"
        }
      ],
      "name": "createCampaign",
      "outputs": [],
      "payable": false,
      "stateMutability": "nonpayable",
      "type": "function"
    },
    {
      "constant": false,
      "inputs": [
        {
          "internalType": "string",
          "name": "_userEmail",
          "type": "string"
        },
        {
          "internalType": "string",
          "name": "_campaignId",
          "type": "string"
        },
        {
          "internalType": "uint256",
          "name": "_value",
          "type": "uint256"
        }
      ],
      "name": "donate",
      "outputs": [],
      "payable": false,
      "stateMutability": "nonpayable",
      "type": "function"
    },
    {
      "constant": true,
      "inputs": [
        {
          "internalType": "string",
          "name": "_campaignId",
          "type": "string"
        }
      ],
      "name": "getCampaignBalance",
      "outputs": [
        {
          "internalType": "uint256",
          "name": "",
          "type": "uint256"
        }
      ],
      "payable": false,
      "stateMutability": "view",
      "type": "function"
    },
    {
      "constant": true,
      "inputs": [
        {
          "internalType": "string",
          "name": "_campaignId",
          "type": "string"
        }
      ],
      "name": "getCampaignOwner",
      "outputs": [
        {
          "internalType": "string",
          "name": "",
          "type": "string"
        }
      ],
      "payable": false,
      "stateMutability": "view",
      "type": "function"
    },
    {
      "constant": true,
      "inputs": [
        {
          "internalType": "string",
          "name": "_campaignId",
          "type": "string"
        },
        {
          "internalType": "string",
          "name": "_userEmail",
          "type": "string"
        }
      ],
      "name": "getDonateValueByUser",
      "outputs": [
        {
          "internalType": "uint256",
          "name": "",
          "type": "uint256"
        }
      ],
      "payable": false,
      "stateMutability": "view",
      "type": "function"
    },
    {
      "constant": false,
      "inputs": [
        {
          "internalType": "string",
          "name": "_campaignId",
          "type": "string"
        },
        {
          "internalType": "string",
          "name": "_seller",
          "type": "string"
        },
        {
          "internalType": "string",
          "name": "_product",
          "type": "string"
        },
        {
          "internalType": "uint256",
          "name": "_productNum",
          "type": "uint256"
        },
        {
          "internalType": "uint256",
          "name": "_value",
          "type": "uint256"
        }
      ],
      "name": "purchase",
      "outputs": [],
      "payable": false,
      "stateMutability": "nonpayable",
      "type": "function"
    },
    {
      "constant": true,
      "inputs": [
        {
          "internalType": "string",
          "name": "_campaignId",
          "type": "string"
        },
        {
          "internalType": "string",
          "name": "_product",
          "type": "string"
        }
      ],
      "name": "productNumByCmapaign",
      "outputs": [
        {
          "internalType": "uint256",
          "name": "",
          "type": "uint256"
        }
      ],
      "payable": false,
      "stateMutability": "view",
      "type": "function"
    },
    {
      "constant": false,
      "inputs": [
        {
          "internalType": "string",
          "name": "_socialOrg",
          "type": "string"
        },
        {
          "internalType": "string",
          "name": "_campaignId",
          "type": "string"
        }
      ],
      "name": "returnRestPoint",
      "outputs": [],
      "payable": false,
      "stateMutability": "nonpayable",
      "type": "function"
    }
  ],
  "bytecode": "0x608060405234801561001057600080fd5b50336000806101000a81548173ffffffffffffffffffffffffffffffffffffffff021916908373ffffffffffffffffffffffffffffffffffffffff160217905550611d70806100606000396000f3fe608060405234801561001057600080fd5b50600436106100cf5760003560e01c806358cb6ce51161008c578063c21464e711610066578063c21464e7146108d5578063cc23594e14610a3b578063e4738eea14610c38578063fce3f6ac14610d6c576100cf565b806358cb6ce5146106a05780635e831145146108065780637f3582f114610810576100cf565b806318b8275a146100d4578063387da4f21461018f5780633a51d246146102eb57806346d9ca07146103ba5780634983cfe71461047f5780634a3b1152146105d1575b600080fd5b61018d600480360360208110156100ea57600080fd5b810190808035906020019064010000000081111561010757600080fd5b82018360208201111561011957600080fd5b8035906020019184600183028401116401000000008311171561013b57600080fd5b91908080601f016020809104026020016040519081016040528093929190818152602001838380828437600081840152601f19601f820116905080830192505050505050509192919290505050610ebe565b005b6102e9600480360360608110156101a557600080fd5b81019080803590602001906401000000008111156101c257600080fd5b8201836020820111156101d457600080fd5b803590602001918460018302840111640100000000831117156101f657600080fd5b91908080601f016020809104026020016040519081016040528093929190818152602001838380828437600081840152601f19601f8201169050808301925050505050505091929192908035906020019064010000000081111561025957600080fd5b82018360208201111561026b57600080fd5b8035906020019184600183028401116401000000008311171561028d57600080fd5b91908080601f016020809104026020016040519081016040528093929190818152602001838380828437600081840152601f19601f82011690508083019250505050505050919291929080359060200190929190505050610f30565b005b6103a46004803603602081101561030157600080fd5b810190808035906020019064010000000081111561031e57600080fd5b82018360208201111561033057600080fd5b8035906020019184600183028401116401000000008311171561035257600080fd5b91908080601f016020809104026020016040519081016040528093929190818152602001838380828437600081840152601f19601f82011690508083019250505050505050919291929050505061117d565b6040518082815260200191505060405180910390f35b61047d600480360360408110156103d057600080fd5b81019080803590602001906401000000008111156103ed57600080fd5b8201836020820111156103ff57600080fd5b8035906020019184600183028401116401000000008311171561042157600080fd5b91908080601f016020809104026020016040519081016040528093929190818152602001838380828437600081840152601f19601f820116905080830192505050505050509192919290803590602001909291905050506111f0565b005b6105cf6004803603604081101561049557600080fd5b81019080803590602001906401000000008111156104b257600080fd5b8201836020820111156104c457600080fd5b803590602001918460018302840111640100000000831117156104e657600080fd5b91908080601f016020809104026020016040519081016040528093929190818152602001838380828437600081840152601f19601f8201169050808301925050505050505091929192908035906020019064010000000081111561054957600080fd5b82018360208201111561055b57600080fd5b8035906020019184600183028401116401000000008311171561057d57600080fd5b91908080601f016020809104026020016040519081016040528093929190818152602001838380828437600081840152601f19601f820116905080830192505050505050509192919290505050611339565b005b61068a600480360360208110156105e757600080fd5b810190808035906020019064010000000081111561060457600080fd5b82018360208201111561061657600080fd5b8035906020019184600183028401116401000000008311171561063857600080fd5b91908080601f016020809104026020016040519081016040528093929190818152602001838380828437600081840152601f19601f820116905080830192505050505050509192919290505050611492565b6040518082815260200191505060405180910390f35b6107f0600480360360408110156106b657600080fd5b81019080803590602001906401000000008111156106d357600080fd5b8201836020820111156106e557600080fd5b8035906020019184600183028401116401000000008311171561070757600080fd5b91908080601f016020809104026020016040519081016040528093929190818152602001838380828437600081840152601f19601f8201169050808301925050505050505091929192908035906020019064010000000081111561076a57600080fd5b82018360208201111561077c57600080fd5b8035906020019184600183028401116401000000008311171561079e57600080fd5b91908080601f016020809104026020016040519081016040528093929190818152602001838380828437600081840152601f19601f820116905080830192505050505050509192919290505050611508565b6040518082815260200191505060405180910390f35b61080e6115e6565b005b6108d36004803603604081101561082657600080fd5b810190808035906020019064010000000081111561084357600080fd5b82018360208201111561085557600080fd5b8035906020019184600183028401116401000000008311171561087757600080fd5b91908080601f016020809104026020016040519081016040528093929190818152602001838380828437600081840152601f19601f820116905080830192505050505050509192919290803590602001909291905050506116b1565b005b610a25600480360360408110156108eb57600080fd5b810190808035906020019064010000000081111561090857600080fd5b82018360208201111561091a57600080fd5b8035906020019184600183028401116401000000008311171561093c57600080fd5b91908080601f016020809104026020016040519081016040528093929190818152602001838380828437600081840152601f19601f8201169050808301925050505050505091929192908035906020019064010000000081111561099f57600080fd5b8201836020820111156109b157600080fd5b803590602001918460018302840111640100000000831117156109d357600080fd5b91908080601f016020809104026020016040519081016040528093929190818152602001838380828437600081840152601f19601f820116905080830192505050505050509192919290505050611785565b6040518082815260200191505060405180910390f35b610c36600480360360a0811015610a5157600080fd5b8101908080359060200190640100000000811115610a6e57600080fd5b820183602082011115610a8057600080fd5b80359060200191846001830284011164010000000083111715610aa257600080fd5b91908080601f016020809104026020016040519081016040528093929190818152602001838380828437600081840152601f19601f82011690508083019250505050505050919291929080359060200190640100000000811115610b0557600080fd5b820183602082011115610b1757600080fd5b80359060200191846001830284011164010000000083111715610b3957600080fd5b91908080601f016020809104026020016040519081016040528093929190818152602001838380828437600081840152601f19601f82011690508083019250505050505050919291929080359060200190640100000000811115610b9c57600080fd5b820183602082011115610bae57600080fd5b80359060200191846001830284011164010000000083111715610bd057600080fd5b91908080601f016020809104026020016040519081016040528093929190818152602001838380828437600081840152601f19601f8201169050808301925050505050505091929192908035906020019092919080359060200190929190505050611863565b005b610cf160048036036020811015610c4e57600080fd5b8101908080359060200190640100000000811115610c6b57600080fd5b820183602082011115610c7d57600080fd5b80359060200191846001830284011164010000000083111715610c9f57600080fd5b91908080601f016020809104026020016040519081016040528093929190818152602001838380828437600081840152601f19601f820116905080830192505050505050509192919290505050611ab5565b6040518080602001828103825283818151815260200191508051906020019080838360005b83811015610d31578082015181840152602081019050610d16565b50505050905090810190601f168015610d5e5780820380516001836020036101000a031916815260200191505b509250505060405180910390f35b610ebc60048036036040811015610d8257600080fd5b8101908080359060200190640100000000811115610d9f57600080fd5b820183602082011115610db157600080fd5b80359060200191846001830284011164010000000083111715610dd357600080fd5b91908080601f016020809104026020016040519081016040528093929190818152602001838380828437600081840152601f19601f82011690508083019250505050505050919291929080359060200190640100000000811115610e3657600080fd5b820183602082011115610e4857600080fd5b80359060200191846001830284011164010000000083111715610e6a57600080fd5b91908080601f016020809104026020016040519081016040528093929190818152602001838380828437600081840152601f19601f820116905080830192505050505050509192919290505050611bc3565b005b60006001826040518082805190602001908083835b60208310610ef65780518252602082019150602081019050602083039250610ed3565b6001836020036101000a03801982511681845116808217855250505050505090500191505090815260200160405180910390208190555050565b806001846040518082805190602001908083835b60208310610f675780518252602082019150602081019050602083039250610f44565b6001836020036101000a0380198251168184511680821785525050505050509050019150509081526020016040518091039020541015610fa657600080fd5b806001846040518082805190602001908083835b60208310610fdd5780518252602082019150602081019050602083039250610fba565b6001836020036101000a038019825116818451168082178552505050505050905001915050908152602001604051809103902060008282540392505081905550806002836040518082805190602001908083835b602083106110545780518252602082019150602081019050602083039250611031565b6001836020036101000a038019825116818451168082178552505050505050905001915050908152602001604051809103902060010160008282540192505081905550806002836040518082805190602001908083835b602083106110ce57805182526020820191506020810190506020830392506110ab565b6001836020036101000a0380198251168184511680821785525050505050509050019150509081526020016040518091039020600201846040518082805190602001908083835b602083106111385780518252602082019150602081019050602083039250611115565b6001836020036101000a038019825116818451168082178552505050505050905001915050908152602001604051809103902060008282540192505081905550505050565b60006001826040518082805190602001908083835b602083106111b55780518252602082019150602081019050602083039250611192565b6001836020036101000a0380198251168184511680821785525050505050509050019150509081526020016040518091039020549050919050565b6000809054906101000a900473ffffffffffffffffffffffffffffffffffffffff1673ffffffffffffffffffffffffffffffffffffffff163373ffffffffffffffffffffffffffffffffffffffff161461124957600080fd5b806001836040518082805190602001908083835b60208310611280578051825260208201915060208101905060208303925061125d565b6001836020036101000a038019825116818451168082178552505050505050905001915050908152602001604051809103902054116112be57600080fd5b806001836040518082805190602001908083835b602083106112f557805182526020820191506020810190506020830392506112d2565b6001836020036101000a0380198251168184511680821785525050505050509050019150509081526020016040518091039020600082825403925050819055505050565b6002816040518082805190602001908083835b6020831061136f578051825260208201915060208101905060208303925061134c565b6001836020036101000a0380198251168184511680821785525050505050509050019150509081526020016040518091039020600101546001836040518082805190602001908083835b602083106113dc57805182526020820191506020810190506020830392506113b9565b6001836020036101000a03801982511681845116808217855250505050505090500191505090815260200160405180910390206000828254019250508190555060006002826040518082805190602001908083835b602083106114545780518252602082019150602081019050602083039250611431565b6001836020036101000a0380198251168184511680821785525050505050509050019150509081526020016040518091039020600101819055505050565b60006002826040518082805190602001908083835b602083106114ca57805182526020820191506020810190506020830392506114a7565b6001836020036101000a0380198251168184511680821785525050505050509050019150509081526020016040518091039020600101549050919050565b60006002836040518082805190602001908083835b60208310611540578051825260208201915060208101905060208303925061151d565b6001836020036101000a0380198251168184511680821785525050505050509050019150509081526020016040518091039020600201826040518082805190602001908083835b602083106115aa5780518252602082019150602081019050602083039250611587565b6001836020036101000a038019825116818451168082178552505050505050905001915050908152602001604051809103902054905092915050565b6000809054906101000a900473ffffffffffffffffffffffffffffffffffffffff1673ffffffffffffffffffffffffffffffffffffffff163373ffffffffffffffffffffffffffffffffffffffff161461163f57600080fd5b3373ffffffffffffffffffffffffffffffffffffffff166000809054906101000a900473ffffffffffffffffffffffffffffffffffffffff1673ffffffffffffffffffffffffffffffffffffffff161461169857600080fd5b3373ffffffffffffffffffffffffffffffffffffffff16ff5b6000809054906101000a900473ffffffffffffffffffffffffffffffffffffffff1673ffffffffffffffffffffffffffffffffffffffff163373ffffffffffffffffffffffffffffffffffffffff161461170a57600080fd5b806001836040518082805190602001908083835b60208310611741578051825260208201915060208101905060208303925061171e565b6001836020036101000a0380198251168184511680821785525050505050509050019150509081526020016040518091039020600082825401925050819055505050565b60006002836040518082805190602001908083835b602083106117bd578051825260208201915060208101905060208303925061179a565b6001836020036101000a0380198251168184511680821785525050505050509050019150509081526020016040518091039020600301826040518082805190602001908083835b602083106118275780518252602082019150602081019050602083039250611804565b6001836020036101000a038019825116818451168082178552505050505050905001915050908152602001604051809103902054905092915050565b806002866040518082805190602001908083835b6020831061189a5780518252602082019150602081019050602083039250611877565b6001836020036101000a03801982511681845116808217855250505050505090500191505090815260200160405180910390206001015410156118dc57600080fd5b806002866040518082805190602001908083835b6020831061191357805182526020820191506020810190506020830392506118f0565b6001836020036101000a038019825116818451168082178552505050505050905001915050908152602001604051809103902060010160008282540392505081905550806001856040518082805190602001908083835b6020831061198d578051825260208201915060208101905060208303925061196a565b6001836020036101000a038019825116818451168082178552505050505050905001915050908152602001604051809103902060008282540192505081905550816002866040518082805190602001908083835b60208310611a0457805182526020820191506020810190506020830392506119e1565b6001836020036101000a0380198251168184511680821785525050505050509050019150509081526020016040518091039020600301846040518082805190602001908083835b60208310611a6e5780518252602082019150602081019050602083039250611a4b565b6001836020036101000a0380198251168184511680821785525050505050509050019150509081526020016040518091039020600082825401925050819055505050505050565b60606002826040518082805190602001908083835b60208310611aed5780518252602082019150602081019050602083039250611aca565b6001836020036101000a03801982511681845116808217855250505050505090500191505090815260200160405180910390206000018054600181600116156101000203166002900480601f016020809104026020016040519081016040528092919081815260200182805460018160011615610100020316600290048015611bb75780601f10611b8c57610100808354040283529160200191611bb7565b820191906000526020600020905b815481529060010190602001808311611b9a57829003601f168201915b50505050509050919050565b611bcb611c7c565b604051806040016040528083815260200160008152509050806002846040518082805190602001908083835b60208310611c1a5780518252602082019150602081019050602083039250611bf7565b6001836020036101000a03801982511681845116808217855250505050505090500191505090815260200160405180910390206000820151816000019080519060200190611c69929190611c96565b5060208201518160010155905050505050565b604051806040016040528060608152602001600081525090565b828054600181600116156101000203166002900490600052602060002090601f016020900481019282601f10611cd757805160ff1916838001178555611d05565b82800160010185558215611d05579182015b82811115611d04578251825591602001919060010190611ce9565b5b509050611d129190611d16565b5090565b611d3891905b80821115611d34576000816000905550600101611d1c565b5090565b9056fea265627a7a723158207a8396b063b134c1913f5a9e79992962b3999839e16614202be548f0ec57107764736f6c63430005100032",
  "source": "pragma solidity > 0.4.17;\n\ncontract Givven{\n\n    address admin;\n    mapping(string => uint) accounts;\n    mapping(string => Campaign) campaigns;\n\n    struct Campaign{\n        string socialOrg;\n        uint currentDonate;\n\n        mapping(string => uint) donatevalue;\n        mapping(string => uint) products;\n    }\n\n    //contructor\n    constructor() public {\n        admin = msg.sender;\n    }\n    //modifier\n    modifier onlyGivven{\n        require(msg.sender == admin);\n        _;\n    }\n    //Service End\n    function serviceEnd() public onlyGivven{\n        require(admin == msg.sender);\n        selfdestruct(msg.sender);\n    }\n\n    //-----------User Method-------------\n    function addUser(string memory _userEmail) public{\n        accounts[_userEmail] = 0;\n    }\n\n    function getBalance(string memory _userEmail) public view returns (uint){\n        return accounts[_userEmail];\n    }\n\n    function chargeUser(string memory _userEmail, uint _point) public onlyGivven {\n        accounts[_userEmail] += _point;\n    }\n\n    function dischargeUser(string memory _userEmail, uint _point) public onlyGivven{\n        require(accounts[_userEmail] > _point);\n        accounts[_userEmail] -= _point;\n    }\n\n    //----------Campaign Method--------------\n    function createCampaign(string memory _campaignId, string memory _socialOrg) public {\n        Campaign  memory newcampaign = Campaign(_socialOrg,0);\n        campaigns[_campaignId] = newcampaign;\n    }\n   \n    function donate(string memory _userEmail, string memory _campaignId, uint _value) public {\n        require(accounts[_userEmail] >= _value);\n        accounts[_userEmail] -= _value;\n        campaigns[_campaignId].currentDonate += _value;\n        campaigns[_campaignId].donatevalue[_userEmail] += _value;\n    }\n\n    function getCampaignBalance(string memory _campaignId) public view returns (uint){\n        return campaigns[_campaignId].currentDonate;\n    }\n\n    function getCampaignOwner(string memory _campaignId) public view returns (string memory){\n        return campaigns[_campaignId].socialOrg;\n    }\n\n    function getDonateValueByUser(string memory _campaignId,string memory _userEmail) public view returns (uint ){\n        return campaigns[_campaignId].donatevalue[_userEmail];\n    }\n\n    function purchase(string memory _campaignId, string memory _seller, string memory _product,uint _productNum, uint _value) public {\n        require(campaigns[_campaignId].currentDonate >= _value);\n        campaigns[_campaignId].currentDonate -= _value;\n        accounts[_seller] += _value;\n        campaigns[_campaignId].products[_product] += _productNum;\n    }\n\n    function productNumByCmapaign(string memory _campaignId,string memory _product) public view returns (uint){\n        return campaigns[_campaignId].products[_product];\n    }\n\n    function returnRestPoint(string memory _socialOrg, string memory _campaignId) public {\n        accounts[_socialOrg] += campaigns[_campaignId].currentDonate;\n        campaigns[_campaignId].currentDonate = 0;\n    }\n}",
  "sourcePath": "/Users/jin-yechan/Givven/dapp/contracts/Givven.sol",
  "compiler": {
    "name": "solc",
    "version": "0.5.16+commit.9c3226ce.Emscripten.clang"
  },
  "schemaVersion": "3.2.4",
  "updatedAt": "2020-09-01T15:57:00.140Z",
  "networkType": "ethereum",
  "devdoc": {
    "methods": {}
  },
  "userdoc": {
    "methods": {}
  }
}