{
  "contractName": "Simpletest",
  "abi": [
    {
      "constant": false,
      "inputs": [
        {
          "internalType": "uint256",
          "name": "_data",
          "type": "uint256"
        }
      ],
      "name": "setData",
      "outputs": [],
      "payable": false,
      "stateMutability": "nonpayable",
      "type": "function"
    },
    {
      "constant": true,
      "inputs": [],
      "name": "getData",
      "outputs": [
        {
          "internalType": "uint256",
          "name": "",
          "type": "uint256"
        }
      ],
      "payable": false,
      "stateMutability": "view",
      "type": "function"
    },
    {
      "constant": false,
      "inputs": [
        {
          "internalType": "uint256",
          "name": "_add",
          "type": "uint256"
        }
      ],
      "name": "addData",
      "outputs": [],
      "payable": false,
      "stateMutability": "nonpayable",
      "type": "function"
    }
  ],
  "bytecode": "0x608060405234801561001057600080fd5b5061010d806100206000396000f3fe6080604052348015600f57600080fd5b5060043610603c5760003560e01c80633bc5de301460415780635b4b73a914605d578063e5d824a7146088575b600080fd5b604760b3565b6040518082815260200191505060405180910390f35b608660048036036020811015607157600080fd5b810190808035906020019092919050505060bc565b005b60b160048036036020811015609c57600080fd5b810190808035906020019092919050505060c6565b005b60008054905090565b8060008190555050565b8060008082825401925050819055505056fea265627a7a72315820dad10a4587795626db1d8f10b818b443cddfd0671b5649c155ad814e7df2af6f64736f6c63430005100032",
  "source": "pragma solidity >0.4.17;\n\ncontract Simpletest{\n    uint256 data;\n\n    function setData(uint256 _data) public {\n        data = _data;\n    }\n    function getData() view public returns (uint256){\n        return data;\n    }\n    function addData(uint256 _add) public {\n        data += _add;\n    }\n}\n",
  "sourcePath": "/home/ether/ether_dapp/test_truffle/contracts/Givven.sol",
  "compiler": {
    "name": "solc",
    "version": "0.5.16+commit.9c3226ce.Emscripten.clang"
  },
  "schemaVersion": "3.2.0",
  "updatedAt": "2020-05-26T13:31:52.340Z",
  "networkType": "ethereum",
  "devdoc": {
    "methods": {}
  },
  "userdoc": {
    "methods": {}
  }
}